:020000040800F2
:10000000005000200D24000871210008772100080D
:100010007D210008832100088921000800000000DC
:100020000000000000000000000000008F21000818
:100030009B21000800000000A7210008B321000850
:1000400055240008552400085524000855240008AC
:10005000552400085524000855240008552400089C
:10006000552400085524000855240008C121000823
:10007000552400085524000855240008552400087C
:10008000552400085524000855240008552400086C
:10009000D5210008552400085524000855240008DF
:1000A000552400085524000855240008552400084C
:1000B000E9210008552400085524000855240008AB
:1000C000552400085524000855240008552400082C
:1000D000552400085524000855240008552400081C
:1000E000552400085524000855240008000000008D
:1000F0000000000000000000000000000000000000
:0C01000000000000000000005FF808F1A3
:10010C0010B5054C237833B9044B13B10448AFF345
:10011C0000800123237010BDB000002000000000FF
:10012C00DC65000808B5034B1BB103490348AFF36A
:10013C00008008BD00000000B4000020DC65000851
:10014C00034613F8012B002AFBD1181A013870470B
:10015C0081F0004102E000BF83F0004330B54FEA6C
:10016C0041044FEA430594EA050F08BF90EA020FD9
:10017C001FBF54EA000C55EA020C7FEA645C7FEA6C
:10018C00655C00F0E2804FEA5454D4EB5555B8BF8F
:10019C006D420CDD2C4480EA020281EA030382EA00
:1001AC00000083EA010180EA020281EA0303362D92
:1001BC0088BF30BD11F0004F4FEA01314FF4801C65
:1001CC004CEA113102D0404261EB410113F0004F77
:1001DC004FEA03334CEA133302D0524263EB43032E
:1001EC0094EA050F00F0A780A4F10104D5F1200ECC
:1001FC000DDB02FA0EFC22FA05F2801841F1000127
:10020C0003FA0EF2801843FA05F359410EE0A5F1FA
:10021C0020050EF1200E012A03FA0EFC28BF4CF02B
:10022C00020C43FA05F3C01851EBE37101F00045E1
:10023C0007D54FF0000EDCF1000C7EEB00006EEBEE
:10024C000101B1F5801F1BD3B1F5001F0CD3490878
:10025C005FEA30004FEA3C0C04F101044FEA4452CF
:10026C0012F5800F80F09A80BCF1004F08BF5FEA56
:10027C00500C50F1000041EB045141EA050130BD36
:10028C005FEA4C0C404141EB0101013C28BFB1F548
:10029C00801FE9D291F0000F04BF01460020B1FA93
:1002AC0081F308BF2033A3F10B03B3F120020CDA66
:1002BC000C3208DD02F1140CC2F10C0201FA0CF044
:1002CC0021FA02F10CE002F11402D8BFC2F1200CA9
:1002DC0001FA02F120FA0CFCDCBF41EA0C0190405F
:1002EC00E41AA2BF01EB0451294330BD6FEA0404A8
:1002FC001F3C1CDA0C340EDC04F11404C4F1200293
:10030C0020FA04F001FA02F340EA030021FA04F3A4
:10031C0045EA030130BDC4F10C04C4F1200220FAFB
:10032C0002F001FA04F340EA0300294630BD21FA39
:10033C0004F0294630BD94F0000F83F4801306BFFF
:10034C0081F480110134013D4EE77FEA645C18BFF3
:10035C007FEA655C29D094EA050F08BF90EA020F8A
:10036C0005D054EA000C04BF1946104630BD91EA82
:10037C00030F1EBF0021002030BD5FEA545C05D185
:10038C004000494128BF41F0004130BD14F58004C4
:10039C003CBF01F5801130BD01F0004545F0FE4138
:1003AC0041F470014FF0000030BD7FEA645C1ABF6D
:1003BC00194610467FEA655C1CBF0B46024650EAA4
:1003CC00013406BF52EA033591EA030F41F40021D0
:1003DC0030BD00BF90F0000F04BF0021704730B556
:1003EC004FF4806404F132044FF000054FF000012B
:1003FC0050E700BF90F0000F04BF0021704730B5EC
:10040C004FF4806404F1320410F0004548BF4042C0
:10041C004FF000013EE700BF42004FEAE2014FEA15
:10042C0031014FEA02701FBF12F07F4393F07F4FF0
:10043C0081F06051704732F07F4208BF704793F0F3
:10044C007F4F04BF41F40021704730B54FF4607406
:10045C0001F0004521F000411CE700BF50EA010209
:10046C0008BF704730B54FF000050AE050EA0102B2
:10047C0008BF704730B511F0004502D5404261EB22
:10048C0041014FF4806404F132045FEA915C3FF463
:10049C00D8AE4FF003025FEADC0C18BF03325FEA00
:1004AC00DC0C18BF033202EBDC02C2F1200300FAB1
:1004BC0003FC20FA02F001FA03FE40EA0E0021FAD6
:1004CC0002F11444BDE600BF80F0004002E000BF22
:1004DC0081F0004142001FBF5FEA410392EA030F23
:1004EC007FEA226C7FEA236C6AD04FEA1262D2EB6D
:1004FC001363C1BFD218414048404140B8BF5B4272
:10050C00192B88BF704710F0004F40F4000020F00A
:10051C007F4018BF404211F0004F41F4000121F020
:10052C007F4118BF494292EA030F3FD0A2F101026A
:10053C0041FA03FC10EB0C00C3F1200301FA03F1A8
:10054C0000F0004302D5494260EB4000B0F5000FCB
:10055C0013D3B0F1807F06D340084FEA310102F18A
:10056C000102FE2A51D2B1F1004F40EBC25008BF3C
:10057C0020F0010040EA03007047490040EB000006
:10058C00013A28BFB0F5000FEDD2B0FA80FCACF107
:10059C00080CB2EB0C0200FA0CF0AABF00EBC25034
:1005AC0052421843BCBFD0401843704792F0000F22
:1005BC0081F4000106BF80F400000132013BB5E775
:1005CC004FEA41037FEA226C18BF7FEA236C21D0EB
:1005DC0092EA030F04D092F0000F08BF0846704750
:1005EC0090EA010F1CBF0020704712F07F4F04D11E
:1005FC00400028BF40F00040704712F100723CBF31
:10060C0000F50000704700F0004343F0FE4040F45A
:10061C00000070477FEA226216BF08467FEA236318
:10062C000146420206BF5FEA412390EA010F40F403
:10063C00800070474FF0000304E000BF10F000434F
:10064C0048BF40425FEA000C08BF704743F0964336
:10065C0001464FF000001CE050EA010208BF704751
:10066C004FF000030AE000BF50EA010208BF7047D8
:10067C0011F0004302D5404261EB41015FEA010CED
:10068C0002BF84460146002043F0B64308BFA3F1E5
:10069C008053A3F50003BCFA8CF2083AA3EBC253C7
:1006AC0010DB01FA02FC634400FA02FCC2F12002E6
:1006BC00BCF1004F20FA02F243EB020008BF20F01D
:1006CC000100704702F1200201FA02FCC2F1200283
:1006DC0050EA4C0021FA02F243EB020008BF20EA78
:1006EC00DC7070474FF0FF0C1CEAD0521EBF1CEAA6
:1006FC00D15392EA0C0F93EA0C0F6FD01A4480EA94
:10070C00010C400218BF5FEA41211ED04FF000637C
:10071C0043EA501043EA5111A0FB01310CF00040A8
:10072C00B1F5000F3EBF490041EAD3715B0040EACE
:10073C00010062F17F02FD2A1DD8B3F1004F40EB9E
:10074C00C25008BF20F00100704790F0000F0CF071
:10075C00004C08BF49024CEA502040EA51207F3A35
:10076C00C2BFD2F1FF0340EAC250704740F4000010
:10077C004FF00003013A5DDC12F1190FDCBF00F001
:10078C0000407047C2F10002410021FA02F1C2F1AF
:10079C00200200FA02FC5FEA310040F1000053EA4B
:1007AC004C0308BF20EADC70704792F0000F00F099
:1007BC00004C02BF400010F4000F013AF9D040EA9F
:1007CC000C0093F0000F01F0004C02BF490011F433
:1007DC00000F013BF9D041EA0C018FE70CEAD15331
:1007EC0092EA0C0F18BF93EA0C0F0AD030F0004CB1
:1007FC0018BF31F0004CD8D180EA010000F0004065
:10080C00704790F0000F17BF90F0004F084691F022
:10081C00000F91F0004F14D092EA0C0F01D142025C
:10082C000FD193EA0C0F03D14B0218BF084608D125
:10083C0080EA010000F0004040F0FE4040F400006F
:10084C00704740F0FE4040F4400070474FF0FF0C02
:10085C001CEAD0521EBF1CEAD15392EA0C0F93EA49
:10086C000C0F69D0A2EB030280EA010C49024FEA9B
:10087C00402037D04FF0805343EA111143EA101354
:10088C000CF000408B4238BF5B0042F17D024FF40C
:10089C00000C8B4224BF5B1A40EA0C00B3EB510FE7
:1008AC0024BFA3EB510340EA5C00B3EB910F24BFD0
:1008BC00A3EB910340EA9C00B3EBD10F24BFA3EB55
:1008CC00D10340EADC001B0118BF5FEA1C1CE0D11D
:1008DC00FD2A3FF650AF8B4240EBC25008BF20F0D0
:1008EC00010070470CF0004C4CEA50207F32C2BF24
:1008FC00D2F1FF0340EAC250704740F400004FF0C1
:10090C000003013A37E792F0000F00F0004C02BFF1
:10091C00400010F4000F013AF9D040EA0C0093F0BB
:10092C00000F01F0004C02BF490011F4000F013B15
:10093C00F9D041EA0C0195E70CEAD15392EA0C0F7D
:10094C0008D142027FF47DAF93EA0C0F7FF470AFB5
:10095C00084676E793EA0C0F04D14B023FF44CAFF8
:10096C0008466EE730F0004C18BF31F0004CCAD18D
:10097C0030F000427FF45CAF31F000437FF43CAFC9
:10098C005FE700BF4FF0FF3C06E000BF4FF0010CEB
:10099C0002E000BF4FF0010C4DF804CD4FEA4002CD
:1009AC004FEA41037FEA226C18BF7FEA236C11D017
:1009BC0001B052EA530C18BF90EA010F58BFB2EBCA
:1009CC00030088BFC81738BF6FEAE17018BF40F04A
:1009DC00010070477FEA226C02D15FEA402C05D1FE
:1009EC007FEA236CE4D15FEA412CE1D05DF8040B83
:1009FC00704700BF844608466146FFE70FB5FFF716
:100A0C00C9FF002848BF10F1000F0FBD4DF808EDCD
:100A1C00FFF7F4FF0CBF012000205DF808FB00BFBE
:100A2C004DF808EDFFF7EAFF34BF012000205DF818
:100A3C0008FB00BF4DF808EDFFF7E0FF94BF012065
:100A4C0000205DF808FB00BF4DF808EDFFF7D2FF62
:100A5C0094BF012000205DF808FB00BF4DF808EDA5
:100A6C00FFF7C8FF34BF012000205DF808FB00BF72
:100A7C0080B584B000AF3B1D00221A605A609A60AA
:100A8C003C4B3D4A1A603B4B4FF480729A60394B99
:100A9C0000221A73374B00221A75364B4FF4602222
:100AAC00DA61344B00225A60324B06221A6131480B
:100ABC0001F052FD0346002B01D000F008FF042387
:100ACC007B600123BB600723FB603B1D1946294853
:100ADC0001F00AFF0346002B01D000F0F8FE0523BD
:100AEC007B600223BB603B1D1946224801F0FCFED3
:100AFC000346002B01D000F0EAFE06237B600323A3
:100B0C00BB603B1D19461B4801F0EEFE0346002B53
:100B1C0001D000F0DCFE07237B600423BB603B1D8F
:100B2C001946144801F0E0FE0346002B01D000F0FA
:100B3C00CEFE08237B600523BB603B1D19460D4888
:100B4C0001F0D2FE0346002B01D000F0C0FE0923B9
:100B5C007B600623BB603B1D1946064801F0C4FEB2
:100B6C000346002B01D000F0B2FE00BF1037BD468B
:100B7C0080BD00BFDC0000200024014080B58AB09D
:100B8C0000AF786007F1180300221A605A609A606F
:100B9C00DA607B681B68334A93425FD1324B9B69A6
:100BAC00314A43F4007393612F4B9B6903F4007338
:100BBC007B617B692C4B9B692B4A43F0040393614B
:100BCC00294B9B6903F004033B613B69264B9B69F2
:100BDC00254A43F008039361234B9B6903F00803F8
:100BEC00FB60FB68F023BB610323FB6107F1180377
:100BFC0019461E4803F0A4F90323BB610323FB61D0
:100C0C0007F1180319461A4803F09AF9194B1A4AB6
:100C1C001A60184B00225A60164B00229A60154B32
:100C2C008022DA60134B4FF480721A61114B4FF42F
:100C3C0080625A610F4B20229A610E4B0022DA61BE
:100C4C000C4802F08FFF0346002B01D000F03FFE52
:100C5C007B68084A1A62074A7B68536200BF2837D0
:100C6C00BD4680BD00240140001002400008014038
:100C7C00000C01400C0100200800024080B483B03D
:100C8C0000AF7860034B01221A7000BF0C37BD46D1
:100C9C0080BC7047D800002080B500AF174B184AB5
:100CAC001A60164B04225A60144B00229A60134BA4
:100CBC000022DA60114B4FF460221A610F4B4FF493
:100CCC0080125A610D4B00221A760C4B00225A7678
:100CDC000A4B00229A76094B0022DA76074B002247
:100CEC001A77064B00225A77044801F0F6FF0346A8
:100CFC00002B01D000F0EBFD00BF80BD8401002073
:100D0C000064004080B588B000AF786007F1100334
:100D1C0000221A605A609A60DA607B681B68204A6D
:100D2C00934239D11F4BDB691E4A43F00073D361E8
:100D3C001C4BDB6903F00073FB60FB68194B9B6970
:100D4C00184A43F004039361164B9B6903F00403A8
:100D5C00BB60BB684FF400633B6100237B610023E5
:100D6C00BB6107F1100319460F4803F0E9F84FF483
:100D7C0080533B6102237B610323FB6107F110036A
:100D8C001946094803F0DCF800220021142002F077
:100D9C00B2FE142002F0CBFE00BF2037BD4680BD52
:100DAC0000640040001002400008014080B58AB089
:100DBC0000AF01233B620A237B6100233B610023CC
:100DCC003B6000237B600023BB600023FB6000239F
:100DDC00BB610123FB6100237B623B461946034840
:100DEC0002F076F800BF2837BD4680BD8401002094
:100DFC0080B582B000AF78604FF400510A4803F020
:100E0C0052FA0A4B0A4A0021786802F03DFA084B64
:100E1C001B6840F2DF72934201D100F0D3FD00BF9A
:100E2C000837BD4680BD00BF0010014020020020E5
:100E3C006801002080B582B000AF78604FF400519B
:100E4C00034803F030FA00BF0837BD4680BD00BF31
:100E5C000010014080B582B000AF0C4B5B690B4AAF
:100E6C0043F001035361094B5B6903F001037B60A1
:100E7C007B68002200210B2002F03DFE0B2002F0CB
:100E8C0056FE00BF0837BD4680BD00BF00100240B3
:100E9C0080B588B000AF07F1100300221A605A60C9
:100EAC009A60DA603A4B9B69394A43F010039361BC
:100EBC00374B9B6903F01003FB60FB68344B9B6959
:100ECC00334A43F020039361314B9B6903F02003B9
:100EDC00BB60BB682E4B9B692D4A43F004039361A6
:100EEC002B4B9B6903F004037B607B68284B9B694D
:100EFC00274A43F008039361254B9B6903F00803D1
:100F0C003B603B6800224FF40051224803F0B3F9D8
:100F1C0000220821204803F0AEF94FF400533B6146
:100F2C0001237B610023BB610223FB6107F11003EA
:100F3C001946184803F004F804233B6100237B6135
:100F4C000023BB6107F110031946134802F0F8FFA8
:100F5C0008233B6101237B610023BB610223FB61FE
:100F6C0007F1100319460C4802F0EAFF4FF48063B6
:100F7C003B6100237B610123BB6107F11003194620
:100F8C00064802F0DDFF00BF2037BD4680BD00BF24
:100F9C00001002400010014000080140000C01400C
:100FAC0080B500AF124B134A1A60114B124A5A60AB
:100FBC000F4B00229A600E4B0022DA600C4B4FF460
:100FCC0080421A610A4B00225A61094B00229A6135
:100FDC00074B0022DA61064B00221A62044803F028
:100FEC007BF90346002B01D000F071FC00BF80BDE3
:100FFC00AC01002000540040A086010080B588B0F0
:10100C0000AF786007F1100300221A605A609A60F2
:10101C00DA607B681B68154A934223D1144B9B6999
:10102C00134A43F008039361114B9B6903F00803C7
:10103C00FB60FB68C0233B6112237B610323FB61D4
:10104C0007F1100319460B4802F07AFF084BDB69D5
:10105C00074A43F40013D361054BDB6903F4001317
:10106C00BB60BB6800BF2037BD4680BD005400404C
:10107C0000100240000C014080B586B002AF034660
:10108C00FB71FB7923F00F03FB73FB791B01BB7323
:10109C00FB7B43F00C03DBB23B72FB7B43F008039E
:1010AC00DBB27B72BB7B43F00C03DBB2BB72BB7B52
:1010BC0043F00803DBB2FB7207F1080264230093D0
:1010CC0004234E21034803F04BFA00BF1037BD46F2
:1010DC0080BD00BFAC01002080B586B002AF0346D6
:1010EC00FB71FB7923F00F03FB73FB791B01BB73C3
:1010FC00FB7B43F00D03DBB23B72FB7B43F009033C
:10110C00DBB27B72BB7B43F00D03DBB2BB72BB7BF0
:10111C0043F00903DBB2FB7207F10802642300936E
:10112C0004234E21034803F01BFA00BF1037BD46C1
:10113C0080BD00BFAC01002080B500AF3320FFF7AD
:10114C009BFF3220FFF798FF322001F0E1F92820B5
:10115C00FFF792FF322001F0DBF90120FFF78CFF43
:10116C00322001F0D5F90620FFF786FF322001F07E
:10117C00CFF90C20FFF780FF322001F0C9F90220D3
:10118C00FFF77AFF322001F0C3F98020FFF774FFDC
:10119C0000BF80BD80B582B000AF786006E07B6890
:1011AC005A1C7A601B781846FFF796FF7B681B78F1
:1011BC00002BF4D100BF00BF0837BD4680BD80B501
:1011CC0000AF0120FFF758FF00BF80BD80B582B093
:1011DC0000AF786039607B68002B07D13B68DBB2CD
:1011EC00803BDBB21846FFF747FF09E07B68012B19
:1011FC0006D13B68DBB2403BDBB21846FFF73CFF45
:10120C0000BF0837BD4680BD80B584B000AF7860A4
:10121C0000217868FFF7DAFF0023FB6005E008483F
:10122C00FFF7B8FFFB680133FB60FB680F2BF6DDA3
:10123C0000217868FFF7CAFF00BF1037BD4680BD9C
:10124C00BC66000880B584B000AF7860396039683E
:10125C007868FFF7BBFF3B68FB6005E00948FFF7C8
:10126C0099FFFB680133FB60FB680F2BF6DD0A204E
:10127C0001F04EF939687868FFF7A8FF00BF103706
:10128C00BD4680BDBC66000880B500AF01F084F897
:10129C0003461A462B4B1A602B4B1A68294B1B68BA
:1012AC009A4234D0284B1A68264B1B689A4209DAAA
:1012BC004FF47A7001F02CF9244B1B680133234A4C
:1012CC00136008E04FF47A7001F022F91F4B1B6891
:1012DC00013B1E4A13601D4B1A681D4B1B689A423A
:1012EC0003DB1A4B00221A6008E0184B1B68002B1A
:1012FC0004DA174B1B68013B144A1360114B1B6833
:10130C00114A1360114B1B68184600F027F84FF474
:10131C008061104802F098FF0346002B10D100BFEB
:10132C004FF480610B4802F08FFF0346002BF7D07F
:10133C00094B01221A70FFF742FF0A2001F0E8F86E
:10134C0000BF80BD00020020040200200C0200201F
:10135C0000000020000C01400802002080B584B081
:10136C0000AF78600123FB607B6803F00103002B66
:10137C0009D10223FB60414B1B68013B7A689A42FE
:10138C0001DB0023FB60FB68022B09D0FB68022BFE
:10139C006FD8FB68002B51D0FB68012B27D068E07D
:1013AC00FFF70DFF192001F0B3F800210020FFF723
:1013BC000DFF3348FFF7EEFE01210020FFF706FF7B
:1013CC00304A7B6852F823301846FFF7E3FE0121C0
:1013DC000120FFF7FBFE7B6801332A4A52F82330C9
:1013EC001846FFF7D7FE192001F092F841E0FFF7FD
:1013FC00E6FE192001F08CF801210020FFF7E6FE33
:10140C007B68013B1F4A52F823301846FFF7C2FE97
:10141C0000210120FFF7DAFE1948FFF7BBFE01217E
:10142C000120FFF7D3FE174A7B6852F82330184689
:10143C00FFF7B0FE192001F06BF81AE0FFF7BFFEC2
:10144C00192001F065F800210020FFF7BFFE0C48C1
:10145C00FFF7A0FE01210020FFF7B8FE094A7B68C8
:10146C0052F823301846FFF795FE192001F050F87A
:10147C0000BF00BF1037BD4680BD00BF000000207C
:10148C00C06600080C00002080B582B000AF786008
:10149C00786800F0B7F8514B1B68022B0CD1042173
:1014AC004F4802F0D1FE0346002B05D10120FFF777
:1014BC00ABFE0A2001F02CF800F06EFF03461A4632
:1014CC00484B1A60484B1A68464B1B689A4264D0CA
:1014DC00454B1A68434B1B689A4212DA4FF47A70E8
:1014EC0001F016F8414B1B680133404A1360404B26
:1014FC0093F90030DBB20133DBB25AB23C4B1A70B9
:10150C0011E04FF47A7001F003F8384B1B68013B83
:10151C00364A1360364B93F90030DBB2013BDBB239
:10152C005AB2334B1A70314B1A68324B1B689A42C1
:10153C0003DB2E4B00221A6008E02C4B1B68002B9F
:10154C0004DA2C4B1B68013B284A1360284B93F997
:10155C000020294B93F900309A4203DB244B0022E4
:10156C001A700DE0224B93F90030002B08DA224B55
:10157C0093F90030DBB2013BDBB25AB21C4B1A7050
:10158C00184B1B68184A13600120FFF73DFE0A2018
:10159C0000F0BEFF786800F035F84FF48061174812
:1015AC0002F052FE0346002B13D100BF4FF48061B2
:1015BC00124802F049FE0346002BF7D00B4B0022D9
:1015CC001A600F4B00221A70044B1B681846FFF769
:1015DC00C5FE00BF0837BD4680BD00BF0C02002011
:1015EC00000801400002002004020020100200202C
:1015FC00140200200400002008000020000C014010
:10160C000802002080B584B000AF78600021002073
:10161C00FFF7DCFD3448FFF7BDFD00210120FFF78B
:10162C00D5FD7B68022B48D07B68022B58DC7B688D
:10163C00002B03D07B68012B09D051E02B4B1B688E
:10164C002B4A52F823301846FFF7A4FD48E0274BED
:10165C001B68DBB2184600F03BFB264B1B68264A86
:10166C00126811461846FFF7D1F90346002B1FD11B
:10167C001E4B1B68214A52F823301846FFF78AFD8F
:10168C001A4B1B681D4A52F823301846FEF758FDBA
:10169C000346FB73FB7B013319460120FFF7D2FD98
:1016AC00124B1B68184600F07FFC0A2000F030FF3C
:1016BC00104B1B68104A136012E0114B1B78002B67
:1016CC0003D11048FFF766FD0AE00F4B93F9003089
:1016DC001A460E4B53F822301846FFF75BFD00BF3D
:1016EC0000BF1037BD4680BDC46600081002002044
:1016FC001800002050020020500000203000002074
:10170C0054020020CC66000814020020480000207F
:10171C0080B500AF00F09AFE00F07EF8FFF7B8FB42
:10172C00FFF798FBFFF7B8FAFFF7A2F9FFF738FCC1
:10173C0000F09AFD01224FF400512D4802F09BFD60
:10174C00FFF734FB2B4801F08CFC0221294801F0F7
:10175C00BCFE06222849294800F0D6FF3C21284827
:10176C0003F0AAFFFFF7E8FCFFF729FD142000F0B7
:10177C00CFFE00210020FFF729FD2248FFF70AFDCC
:10178C0000210120FFF722FD1F48FFF703FD4FF456
:10179C00FA6000F0BDFEFFF712FD142000F0B8FE59
:1017AC001A4B1B681846FFF7D9FD0622124913483D
:1017BC0000F0AAFF00BF164B1B78002BFBD0144B7C
:1017CC0000221A7000F088F8124B1B78002B02D103
:1017DC00FFF75AFD08E00F4B1B78012B04D10B4B84
:1017EC001B681846FFF750FE322000F091FEDCE734
:1017FC000010014084010020CC000020DC000020FF
:10180C0064020020DC660008F06600080C02002070
:10181C00D80000200802002080B594B000AF07F17A
:10182C00280328220021184604F040FA07F114037B
:10183C0000221A605A609A60DA601A613B1D00221D
:10184C001A605A609A60DA600123BB624FF48033ED
:10185C00FB6200233B630123BB6302237B644FF4D5
:10186C008033BB644FF4E013FB6407F12803184684
:10187C0003F0CEF90346002B01D000F028F80F231B
:10188C007B610223BB610023FB614FF480633B62ED
:10189C0000237B6207F114030221184603F03AFC83
:1018AC000346002B01D000F012F802237B604FF4AA
:1018BC004043FB603B1D184603F0A6FD0346002B7E
:1018CC0001D000F004F800BF5037BD4680BD80B495
:1018DC0000AF72B600BFFEE780B584B002AF002344
:1018EC00FB715FE0344B1B881846FF2300930023E9
:1018FC0040F6FF72002100F03BFB03461AB22F4B5F
:10190C001A802D4B5B8818464FF6FF73009300230B
:10191C0040F6FF72002100F02BFB03469AB2274BD6
:10192C005A80254B9B881846FF230093002340F6D2
:10193C00FF72002100F01CFB03469AB21F4B9A80E9
:10194C001D4BDB8818464FF6FF730093002340F6BF
:10195C00FF72002100F00CFB03469AB2174BDA80A1
:10196C00154B1B891846FF230093002340F6FF728A
:10197C00002100F0FDFA03469AB2104B1A810E4B6F
:10198C005B8918464FF6FF730093002340F6FF72F5
:10199C00002100F0EDFA03461AB2084B5A81FB798C
:1019AC000133FB71FA79064B1B699A429AD300BF3B
:1019BC0000BF0837BD4680BDCC0000202C020020A3
:1019CC00DC00002080B500AF984B4FF4FD621A602C
:1019DC00964B00229A60954B0022DA60934B0822BA
:1019EC001A61934B5B78012B40F0EB80914B4122B9
:1019FC005A708F4B9B78142B00F2E38001A252F8A3
:101A0C0023F000BF651A00089D1A0008CF1B0008C0
:101A1C00CF1B0008CF1B0008C91A0008CF1B0008F9
:101A2C00CF1B0008CF1B0008CF1B0008CF1B0008E2
:101A3C00CF1B0008EF1A0008211B0008CF1B000861
:101A4C00CF1B0008451B0008771B0008CF1B0008A4
:101A5C00CF1B00089B1B0008764B06221A70754B97
:101A6C0000229A70734BC822DA70724B19221A71C9
:101A7C00704BB0225A716F4B00229A716D4B002241
:101A8C00DA716D4B6B4A69496C4801F02EFB98E09A
:101A9C00684B05221A70674B01229A70654BE8223D
:101AAC00DA70644B07221A71624BFF225A71624B37
:101ABC00604A5E49614801F018FB82E05D4B0322ED
:101ACC001A705C4B05229A705D4BB3F90030DAB298
:101ADC00584BDA70584B574A5449584801F005FB9B
:101AEC006FE0544B04221A70524B0C229A70544BD8
:101AFC005B881B0A9BB2DAB24E4BDA70504B5B8898
:101B0C00DAB24C4B1A714C4B4A4A48494B4801F0DB
:101B1C00ECFA56E0474B03221A70464B0D229A7092
:101B2C00474B9B88DAB2434BDA70434B414A3F49EF
:101B3C00424801F0DAFA44E03E4B04221A703D4B65
:101B4C0010229A703E4BDB881B0A9BB2DAB2394BDF
:101B5C00DA703B4BDB88DAB2364B1A71364B354AAE
:101B6C003249364801F0C1FA2BE0324B03221A708D
:101B7C00304B11229A70324B1B89DAB22D4BDA7032
:101B8C002D4B2C4A29492D4801F0AFFA19E0294B6D
:101B9C0004221A70274B14229A70294BB3F90A307D
:101BAC001B12DAB2234BDA70254BB3F90A30DAB2D6
:101BBC00204B1A71204B1F4A1C49204801F095FA02
:101BCC0000BF1B4B5B78022B1DD11A4B06221A70DF
:101BDC00184B42225A70174B02229A70154BC8228E
:101BEC00DA70144B19221A71124BB0225A71114B24
:101BFC00CC229A710F4BCC22DA710F4B0D4A0B4948
:101C0C000E4801F072FA0A4B5B78032B37D10D4B5F
:101C1C001B78002B18D1074B02221A70054B43225C
:101C2C005A70044B00229A7029E000BF500100202A
:101C3C00200200201802002028020020840100202D
:101C4C002C020020540200201A4B06221A70194B49
:101C5C0043225A70174B01229A70164B0122DA70EC
:101C6C00144B01221A71134B01225A71114B16227B
:101C7C009A71114B0F4A1149114801F036FA114B68
:101C8C005B78042B13D1104B00221A700022082110
:101C9C000E4802F0F0FA074B00221A70054B442252
:101CAC005A70054B034A0549054801F01EFA00BF5E
:101CBC0080BD00BF18020020280200205001002027
:101CCC008401002020020020540200200008014062
:101CDC0080B582B000AF0346FB71FB79052B00F297
:101CEC00BE8001A252F823F00D1D00083D1D000816
:101CFC00811D0008A71D0008EF1D00082B1E000801
:101D0C008D4BB3F90030DAB28C4B1A708B4B1B78BD
:101D1C009BB2283B9BB21AB2894B1A80884BB3F901
:101D2C0000301846FEF78AFC0346864A136097E09B
:101D3C00814B5B881B0A9BB2DAB2804B1A707E4BCC
:101D4C005B88DAB27D4B5A707C4B1B781B027B4A4A
:101D5C0052781344002B00DA03339B109AB2784B61
:101D6C005A80774B5B881846FEF764FC0346754A2D
:101D7C00136075E0704B9B88DAB2704B1A706F4B26
:101D8C001B789AB26E4B9A806D4B9B881846FEF767
:101D9C0051FC03466B4A136062E0674BDB881B0AFD
:101DAC009BB2DAB2654B1A70634BDB88DAB2634BC9
:101DBC005A70624B1B781B02604A52781344624A79
:101DCC0082FB03125211DB17D31A9AB25C4BDA80E6
:101DDC005B4BDB881846FEF72DFC0346594A136013
:101DEC003EE0554B1B89DAB2544B1A70534B1B789F
:101DFC001A46642302FB03F3544A82FB03121A446F
:101E0C00D211DB17D31A9AB24D4B1A814C4B1B894A
:101E1C001846FEF70FFC03464A4A136020E0464B77
:101E2C00B3F90A301B12DAB2444B1A70424BB3F9B5
:101E3C000A30DAB2414B5A70404B1B781846FEF709
:101E4C00F9FB034642491846FEF700FD03461A46C5
:101E5C003B4BDA603A4BDB683A4A136000E000BF58
:101E6C003C4B5B78022B1DD13B4B06221A703A4B34
:101E7C0042225A70384B02229A70374BC822DA70C1
:101E8C00354B19221A71344BB0225A71324B002245
:101E9C009A71314B0022DA71304B2F4A304931485C
:101EAC0001F023F92B4B5B78032B28D12E4B1B789D
:101EBC00002B09D1284B02221A70274B43225A704F
:101ECC00254B00229A701AE0234B06221A70224BE3
:101EDC0043225A70204B01229A701F4B0122DA7058
:101EEC001D4B01221A711C4B01225A711A4B1622DE
:101EFC009A711A4B184A1A491A4801F0F6F8154B00
:101F0C005B78042B13D1184B00221A700022082185
:101F1C00164802F0B0F9104B00221A700E4B4422F6
:101F2C005A700E4B0C4A0E490E4801F0DEF800BFF9
:101F3C000837BD4680BD00BF2C0200204C0200209B
:101F4C0038020020500200201F85EB5181808080D8
:101F5C000000484320020020180200202802002024
:101F6C005001002084010020540200200008014090
:101F7C0080B485B000AFF860B9607A603B60FA68F5
:101F8C00BB68D31AB9693A688A1A03FB02F27968FA
:101F9C00BB68CB1A92FBF3F23B6813441846143718
:101FAC00BD4680BC7047000080B588B000AF78603B
:101FBC007B68DAB24A4B1A707B68052B00F28C8076
:101FCC0001A252F823F000BFED1F000817200008F3
:101FDC003F200008672000088F200008B720000869
:101FEC003F4B1B781846FFF773FE3E4BB3F900309E
:101FFC001A4607F10C033C49184603F037FE07F16B
:10200C000C031846FFF7C6F866E0354B1B781846EC
:10201C00FFF75EFE334B5B881A4607F10C0333491E
:10202C00184603F023FE07F10C031846FFF7B2F82D
:10203C0052E02B4B1B781846FFF74AFE294B9B8826
:10204C001A4607F10C032A49184603F00FFE07F154
:10205C000C031846FFF79EF83EE0214B1B78184600
:10206C00FFF736FE1F4BDB881A4607F10C0321499C
:10207C00184603F0FBFD07F10C031846FFF78AF82E
:10208C002AE0174B1B781846FFF722FE154B1B89CD
:10209C001A4607F10C031849184603F0E7FD07F13F
:1020AC000C031846FFF776F816E00D4B1B78184614
:1020BC00FFF70EFE0B4BDB681846FEF7ADF9024638
:1020CC000B4607F10C000D4903F0D0FD07F10C0392
:1020DC001846FFF75FF800BF00BF2037BD4680BD34
:1020EC00480200203802002000670008086700083A
:1020FC0010670008186700082067000828670008A8
:10210C0080B485B000AF154B9B69144A43F00103B2
:10211C009361124B9B6903F00103BB60BB680F4BCF
:10212C00DB690E4A43F08053D3610C4BDB6903F03F
:10213C0080537B607B680A4B5B68FB60FB6823F019
:10214C00E063FB60FB6843F00073FB60044AFB68D0
:10215C00536000BF1437BD4680BC7047001002406E
:10216C000000014080B400AFFEE780B400AFFEE792
:10217C0080B400AFFEE780B400AFFEE780B400AFE0
:10218C00FEE780B400AF00BFBD4680BC704780B492
:10219C0000AF00BFBD4680BC704780B400AF00BF2D
:1021AC00BD4680BC704780B500AF00F095F900BF0C
:1021BC0080BD000080B500AF024801F08DFD00BF6E
:1021CC0080BD00BF0C01002080B500AF024801F0BB
:1021DC00A1F900BF80BD00BF8401002080B500AF15
:1021EC00024803F017FB00BF80BD00BF6402002053
:1021FC0080B586B000AF7860144A154BD31A7B615A
:10220C007B693B61134B1B68002B02D1114B124AAB
:10221C001A60104B1A687B6813443A699A4207D2C9
:10222C0003F04CFD03460C221A604FF0FF3309E01B
:10223C00084B1B68FB60074B1A687B681344054A04
:10224C001360FB6818461837BD4680BD005000204F
:10225C000004000058020020F803002080B400AFF6
:10226C0000BFBD4680BC704780B58CB000AF07F195
:10227C000C0324220021184603F018FD3B1D0022FC
:10228C001A605A60214B4FF080421A601F4B00229B
:10229C005A601E4B00229A601C4B4FF6FF72DA609C
:1022AC001A4B00221A61194B00229A610323FB601E
:1022BC0000233B6101237B610023BB610A23FB618B
:1022CC0000233B6201237B620023BB620023FB6281
:1022DC0007F10C0319460D4803F04CF90346002B8B
:1022EC0001D0FFF7F4FA00237B600023BB603B1D99
:1022FC001946064803F04AFC0346002B01D0FFF7B1
:10230C00E6FA00BF3037BD4680BD00BF6402002036
:10231C0080B588B000AF786007F1100300221A6016
:10232C005A609A60DA607B681B68B3F1804F2BD1DE
:10233C00174BDB69164A43F00103D361144BDB697D
:10234C0003F00103FB60FB68114B9B69104A43F0DF
:10235C00040393610E4B9B6903F00403BB60BB68E1
:10236C0003233B6100237B610023BB6107F1100356
:10237C001946084801F0E4FD002200211C2001F060
:10238C00BAFB1C2001F0D3FB00BF2037BD4680BD3B
:10239C00001002400008014080B582B000AF154B20
:1023AC001B685B6A7B60144B1B687A689A4209DD78
:1023BC00124B1B8801339AB2104B1A800E4A7B6861
:1023CC0013600DE00C4B1B687A689A4208DA0B4BD1
:1023DC001B88013B9AB2094B1A80074A7B68136031
:1023EC00322000F095F8054B1B88DBB218460837F5
:1023FC00BD4680BD64020020600200205C0200200B
:10240C00FFF72CFF0B480C490C4A002302E0D45870
:10241C00C4500433C4188C42F9D3094A094C002324
:10242C0001E013600432A242FBD303F04DFCFFF732
:10243C006FF9704700000020B0000020986700087A
:10244C00B0000020F8030020FEE7000080B500AFCC
:10245C00084B1B68074A43F010031360032001F07C
:10246C003FFB0F2000F008F8FFF74AFE0023184648
:10247C0080BD00BF0020024080B582B000AF786004
:10248C00124B1A68124B1B7819464FF47A73B3FB34
:10249C00F1F3B2FBF3F3184601F057FB0346002BA4
:1024AC0001D001230EE07B680F2B0AD8002279683B
:1024BC004FF0FF3001F01FFB064A7B6813600023CE
:1024CC0000E0012318460837BD4680BD54000020AB
:1024DC005C0000205800002080B400AF054B1B7836
:1024EC001A46054B1B681344034A136000BFBD46D4
:1024FC0080BC70475C000020AC02002080B400AFB0
:10250C00024B1B681846BD4680BC7047AC020020CD
:10251C0080B584B000AF7860FFF7F0FFB8607B68DF
:10252C00FB60FB68B3F1FF3F05D00A4B1B781A46E2
:10253C00FB681344FB6000BFFFF7E0FF0246BB687B
:10254C00D31AFA689A42F7D800BF00BF1037BD46BD
:10255C0080BD00BF5C00002080B586B000AF786005
:10256C000023FB7500233B610023BB600023FB6051
:10257C007B68002B01D10123BEE07B689B68002B9C
:10258C007B689B6A002B09D17B680022DA627B682E
:10259C00002283F824207868FEF7F0FA786800F0BF
:1025AC00F5FA0346FB757B689B6A03F01003002B5E
:1025BC0040F09980FB7D002B40F095807B689B6AF6
:1025CC0023F4885323F0020343F002027B689A62DF
:1025DC007B685A687B68DB691A437B681B7B5B00F2
:1025EC001343BA681343BB607B689B68B3F5807F69
:1025FC0003D07B689B68012B02D14FF4807300E001
:10260C0000233A6913433B617B681B7D012B19D175
:10261C007B681B7B002B09D17B689B69013B5A03B0
:10262C003B69134343F400633B610BE07B689B6A9B
:10263C0043F020027B689A627B68DB6A43F00102FC
:10264C007B68DA627B681B685B6823F469417B6892
:10265C001B683A690A435A607B681B689A68284B66
:10266C0013407A681268B9680B4393607B689B6867
:10267C00B3F5807F03D07B689B68012B04D17B680A
:10268C001B69013B1B05FB607B681B68DB6A23F441
:10269C0070017B681B68FA680A43DA627B681B6806
:1026AC009A68184B1340BA689A420BD17B68002287
:1026BC00DA627B689B6A23F0030343F001027B68B8
:1026CC009A6218E07B689B6A23F0120343F01002B5
:1026DC007B689A627B68DB6A43F001027B68DA6292
:1026EC000123FB7507E07B689B6A43F010027B6853
:1026FC009A620123FB75FB7D18461837BD4680BDD9
:10270C00FDF7E1FFFE0E1FFF80B586B000AFF8604D
:10271C00B9607A600023FB75FB681B68644A9342BE
:10272C0004D0FB681B68634A934206D1604B5B681C
:10273C0003F47023002B40F0B380FB6893F8243033
:10274C00012B01D10223AEE0FB68012283F8242087
:10275C00F86800F0C1F90346FB75FB7D002B40F0D7
:10276C009A80FB689B6A23F4706323F0010343F4A3
:10277C008072FB689A62FB681B684E4A934205D1D3
:10278C004B4B5B6803F47023002B15D1FB689B6AE1
:10279C0023F48012FB689A62FB681B685B6803F485
:1027AC008063002B26D0FB689B6A23F4405343F4D0
:1027BC008052FB689A621DE0FB689B6A43F48012AE
:1027CC00FB689A62FB681B68394A934204D0FB6829
:1027DC001B68384A93420DD1354B5B6803F4806318
:1027EC00002B07D0FB689B6A23F4405343F48052C0
:1027FC00FB689A62FB689B6A03F48053002B06D03B
:10280C00FB68DB6A23F00602FB68DA6202E0FB6815
:10281C000022DA62FB68002283F82420FB681B6A22
:10282C00254A9A62FB681B6A244ADA62FB681B6AB7
:10283C00234A1A63FB681B686FF002021A60FB687C
:10284C001B689A68FB681B6842F480729A60FB688C
:10285C00186AFB681B684C331946BA687B6801F030
:10286C00DBF9FB681B689B6803F46023B3F5602FEE
:10287C0008D1FB681B689A68FB681B6842F4A002CD
:10288C009A600FE0FB681B689A68FB681B6842F44F
:10289C0080129A6006E0FB68002283F8242001E095
:1028AC000123FB75FB7D18461837BD4680BD00BF64
:1028BC0000240140002801401B2C0008972C000824
:1028CC00B32C000880B483B000AF786000BF0C3725
:1028DC00BD4680BC704780B483B000AF786000BF49
:1028EC000C37BD4680BC704780B485B000AF7860B3
:1028FC0039600023FB730023BB607B6893F82430A2
:10290C00012B01D10223DCE07B68012283F8242017
:10291C003B685B68062B1CD87B681B68596B3B6853
:10292C005A6813469B001344053B1F2202FA03F31B
:10293C00DB4319403B6818683B685A6813469B0098
:10294C001344053B00FA03F27B681B680A435A6385
:10295C003CE03B685B680C2B1CD87B681B68196BD4
:10296C003B685A6813469B001344233B1F2202FA10
:10297C0003F3DB4319403B6818683B685A681346FD
:10298C009B001344233B00FA03F27B681B680A4349
:10299C001A631BE07B681B68D96A3B685A6813464C
:1029AC009B001344413B1F2202FA03F3DB43194003
:1029BC003B6818683B685A6813469B001344413BBC
:1029CC0000FA03F27B681B680A43DA623B681B68F7
:1029DC00092B1CD97B681B68D9683B681A6813469D
:1029EC005B0013441E3B072202FA03F3DB4319403E
:1029FC003B6898683B681A6813465B0013441E3B9F
:102A0C0000FA03F27B681B680A43DA6019E07B6802
:102A1C001B6819693B681A6813465B00134407224C
:102A2C0002FA03F3DB4319403B6898683B681A6869
:102A3C0013465B00134400FA03F27B681B680A43DD
:102A4C001A613B681B68102B03D03B681B68112B69
:102A5C0032D17B681B681D4A934225D17B681B6869
:102A6C009B6803F40003002B26D17B681B689A68D3
:102A7C007B681B6842F400029A603B681B68102B51
:102A8C001AD1134B1B68134AA2FB03239A0C13464F
:102A9C009B0013445B00BB6002E0BB68013BBB6066
:102AAC00BB68002BF9D107E07B689B6A43F02002DE
:102ABC007B689A620123FB737B68002283F82420D5
:102ACC00FB7B18461437BD4680BC70470024014080
:102ADC005400002083DE1B4380B584B000AF7860C7
:102AEC000023FB600023BB607B681B689B6803F0C2
:102AFC000103012B40D07B681B689A687B681B68BC
:102B0C0042F001029A601F4B1B681F4AA2FB032371
:102B1C009B0CBB6002E0BB68013BBB60BB68002B3D
:102B2C00F9D1FFF7EBFCF8601FE0FFF7E7FC02467A
:102B3C00FB68D31A022B18D97B681B689B6803F0BF
:102B4C000103012B11D07B689B6A43F010027B6858
:102B5C009A627B68DB6A43F001027B68DA627B680D
:102B6C00002283F82420012307E07B681B689B6804
:102B7C0003F00103012BD8D1002318461037BD46B2
:102B8C0080BD00BF5400002083DE1B4380B584B0A1
:102B9C0000AF78600023FB607B681B689B6803F0C8
:102BAC000103012B2ED17B681B689A687B681B681C
:102BBC0022F001029A60FFF7A1FCF8601BE0FFF71E
:102BCC009DFC0246FB68D31A022B14D97B681B6848
:102BDC009B6803F00103012B0DD17B689B6A43F0CA
:102BEC0010027B689A627B68DB6A43F001027B68A7
:102BFC00DA62012307E07B681B689B6803F0010322
:102C0C00012BDCD0002318461037BD4680BD80B5A3
:102C1C0084B000AF78607B685B6AFB60FB689B6A82
:102C2C0003F05003002B27D1FB689B6A43F400721E
:102C3C00FB689A62FB681B689B6803F46023B3F51E
:102C4C00602F15D1FB681B7B002B11D1FB689B6A95
:102C5C0023F48072FB689A62FB689B6A03F48053CE
:102C6C00002B05D1FB689B6A43F00102FB689A625A
:102C7C00F868FEF703F804E0FB681B6A1B6B7868C6
:102C8C00984700BF1037BD4680BD80B584B000AFFB
:102C9C0078607B685B6AFB60F868FFF713FE00BF27
:102CAC001037BD4680BD80B584B000AF78607B68BE
:102CBC005B6AFB60FB689B6A43F04002FB689A62AC
:102CCC00FB68DB6A43F00402FB68DA62F868FFF722
:102CDC0002FE00BF1037BD4680BD80B584B000AF8A
:102CEC0078607B68002B01D10123EDE07B6893F8C1
:102CFC002030DBB2002B02D17868FEF703F87B683A
:102D0C001B681A687B681B6842F001021A60FFF7A7
:102D1C00F5FBF86012E0FFF7F1FB0246FB68D31AF3
:102D2C000A2B0BD97B685B6A43F400327B685A62CE
:102D3C007B68052283F820200123C5E07B681B6893
:102D4C005B6803F00103002BE5D07B681B681A68F5
:102D5C007B681B6822F002021A60FFF7CFFBF86059
:102D6C0012E0FFF7CBFB0246FB68D31A0A2B0BD9F8
:102D7C007B685B6A43F400327B685A627B6805228D
:102D8C0083F8202001239FE07B681B685B6803F0BD
:102D9C000203002BE5D17B681B7E012B08D17B68DD
:102DAC001B681A687B681B6842F080021A6007E097
:102DBC007B681B681A687B681B6822F080021A60AB
:102DCC007B685B7E012B08D17B681B681A687B686B
:102DDC001B6842F040021A6007E07B681B681A68A7
:102DEC007B681B6822F040021A607B689B7E012B7B
:102DFC0008D17B681B681A687B681B6842F020024C
:102E0C001A6007E07B681B681A687B681B6822F0F5
:102E1C0020021A607B68DB7E012B08D17B681B6863
:102E2C001A687B681B6822F010021A6007E07B6846
:102E3C001B681A687B681B6842F010021A607B687A
:102E4C001B7F012B08D17B681B681A687B681B6889
:102E5C0042F008021A6007E07B681B681A687B68FE
:102E6C001B6822F008021A607B685B7F012B08D17B
:102E7C007B681B681A687B681B6842F004021A6046
:102E8C0007E07B681B681A687B681B6822F00402E9
:102E9C001A607B689A687B68DB681A437B681B69DD
:102EAC001A437B685B6942EA03017B685B685A1EC4
:102EBC007B681B680A43DA617B6800225A627B6874
:102ECC00012283F82020002318461037BD4680BD10
:102EDC0080B487B000AF786039607B681B687B6119
:102EEC007B6893F82030FB74FB7C012B03D0FB7CBC
:102EFC00022B40F0AA807B69D3F8003243F0010228
:102F0C007B69C3F800223B685B6903F01F03012255
:102F1C0002FA03F3FB607B69D3F81C22FB68DB43EA
:102F2C001A407B69C3F81C223B68DB69002B23D158
:102F3C007B69D3F80C22FB68DB431A407B69C3F82E
:102F4C000C223B68DB6819043B685B689BB23A68EF
:102F5C00526919437B69483243F832103B689B68CD
:102F6C0019043B681B689AB23B685B690A43796930
:102F7C004833DB000B445A603B68DB69012B22D1E0
:102F8C007B69D3F80C22FB681A437B69C3F80C22CB
:102F9C003B681B6819043B685B689BB23A685269D2
:102FAC0019437B69483243F832103B689B6819041B
:102FBC003B68DB689AB23B685B690A4379694833C2
:102FCC00DB000B445A603B689B69002B09D17B6981
:102FDC00D3F80422FB68DB431A407B69C3F8042254
:102FEC0007E07B69D3F80422FB681A437B69C3F8BA
:102FFC0004223B681B69002B09D17B69D3F814228E
:10300C00FB68DB431A407B69C3F8142207E07B6939
:10301C00D3F81422FB681A437B69C3F814223B686B
:10302C001B6A012B07D17B69D3F81C22FB681A435E
:10303C007B69C3F81C227B69D3F8003223F00102B0
:10304C007B69C3F80022002306E07B685B6A43F4CB
:10305C0080227B685A62012318461C37BD4680BC0F
:10306C00704780B584B000AF78607B6893F82030EF
:10307C00DBB2012B2ED17B68022283F820207B68E7
:10308C001B681A687B681B6822F001021A60FFF744
:10309C0035FAF86012E0FFF731FA0246FB68D31AF2
:1030AC000A2B0BD97B685B6A43F400327B685A624B
:1030BC007B68052283F82020012312E07B681B68C3
:1030CC005B6803F00103002BE5D17B6800225A6298
:1030DC00002306E07B685B6A43F400227B685A623B
:1030EC00012318461037BD4680BD80B489B000AFAF
:1030FC00F860B9607A603B60FB6893F82030FB772E
:10310C00FB681B689B68BB61FB7F012B03D0FB7FBB
:10311C00022B40F0AD80BB6903F08063002B0AD119
:10312C00BB6903F00063002B05D1BB6903F080532E
:10313C00002B00F09580BB691B0E03F003037B6131
:10314C0001227B699A403B681A60BB689B68002B24
:10315C000DD1BB681B685A05BB68DB68F968096848
:10316C001A437B6918331B010B441A600FE0BB68D0
:10317C005B68DA00BB689B681A43BB68DB68F9685C
:10318C0009681A437B6918331B010B441A60FB68EE
:10319C001968BB681A697B6918331B010B4404332B
:1031AC001A60BB681B7D012B11D1FB681A687B6907
:1031BC0018331B01134404331B68FA68116843F479
:1031CC0080727B6918331B010B4404331A607B68D3
:1031DC0007331B781A067B6806331B781B041A43CB
:1031EC007B6805331B781B0213437A680432127810
:1031FC001046FA68116843EA00027B691B010B4414
:10320C0003F5C6731A607B6803331B781A067B6858
:10321C0002331B781B041A437B6801331B781B0297
:10322C0013437A6812781046FA68116843EA000270
:10323C007B691B010B4403F5C4731A60FB681A68A5
:10324C007B6918331B0113441B68FA68116843F03F
:10325C0001027B6918331B010B441A6000230EE03A
:10326C00FB685B6A43F40012FB685A62012306E0B8
:10327C00FB685B6A43F48022FB685A6201231846A0
:10328C002437BD4680BC704780B487B000AFF8606F
:10329C00B9607A603B60FB6893F82030FB75FB7D6E
:1032AC00012B03D0FB7D022B40F00381BB68002B6C
:1032BC000ED1FB681B68DB6803F00303002B16D1EF
:1032CC00FB685B6A43F40012FB685A620123F7E067
:1032DC00FB681B681B6903F00303002B07D1FB6819
:1032EC005B6A43F40012FB685A620123E8E0FB6856
:1032FC001A68BB681B331B0113441B6803F00402E0
:10330C007B689A607B689B68002B0CD1FB681A6801
:10331C00BB681B331B0113441B685B0DC3F30A0210
:10332C007B681A600BE0FB681A68BB681B331B01D7
:10333C0013441B68DB0823F060427B685A60FB680F
:10334C001A68BB681B331B0113441B6803F0020291
:10335C007B68DA60FB681A68BB681B331B0113447B
:10336C0004331B6803F00803002B03D07B6808228E
:10337C001A610BE0FB681A68BB681B331B01134412
:10338C0004331B6803F00F027B681A61FB681A6830
:10339C00BB681B331B01134404331B681B0ADAB2D2
:1033AC007B689A61FB681A68BB681B331B0113446A
:1033BC0004331B681B0C9AB27B685A61FB681A6851
:1033CC00BB681B01134403F5DC731B68DAB23B6862
:1033DC001A70FB681A68BB681B01134403F5DC7395
:1033EC001B681A0A3B680133D2B21A70FB681A6860
:1033FC00BB681B01134403F5DC731B681A0C3B6898
:10340C000233D2B21A70FB681A68BB681B011344F2
:10341C0003F5DC731B681A0E3B680333D2B21A70C7
:10342C00FB681A68BB681B01134403F5DE731A684A
:10343C003B680433D2B21A70FB681A68BB681B0174
:10344C00134403F5DE731B681A0A3B680533D2B2CA
:10345C001A70FB681A68BB681B01134403F5DE7312
:10346C001B681A0C3B680633D2B21A70FB681A68D8
:10347C00BB681B01134403F5DE731B681A0E3B6813
:10348C000733D2B21A70BB68002B08D1FB681B68DB
:10349C00DA68FB681B6842F02002DA6007E0FB6820
:1034AC001B681A69FB681B6842F020021A61002332
:1034BC0006E0FB685B6A43F48022FB685A620123D6
:1034CC0018461C37BD4680BC704780B485B000AF31
:1034DC00786039607B6893F82030FB73FB7B012BA1
:1034EC0002D0FB7B022B09D17B681B6859697B6876
:1034FC001B683A680A435A61002306E07B685B6AE2
:10350C0043F480227B685A62012318461437BD4667
:10351C0080BC704780B58AB000AF786000237B62B6
:10352C007B681B685B693B627B681B685B68FB6143
:10353C007B681B689B68BB617B681B68DB687B6175
:10354C007B681B681B693B617B681B689B69FB6024
:10355C003B6A03F00103002B7CD0BB6903F0010331
:10356C00002B23D07B681B6801229A60BB6903F097
:10357C000203002B03D07868FDF75CFC16E0BB69F6
:10358C0003F00403002B04D07B6A43F400637B62DA
:10359C000CE0BB6903F00803002B04D07B6A43F4F6
:1035AC0080537B6202E0786800F07DF9BB6903F41C
:1035BC008073002B24D07B681B684FF480729A6058
:1035CC00BB6903F40073002B03D0786800F059F941
:1035DC0016E0BB6903F48063002B04D07B6A43F4D0
:1035EC0000537B620CE0BB6903F40063002B04D036
:1035FC007B6A43F480437B6202E0786800F05CF9FC
:10360C00BB6903F48033002B24D07B681B684FF418
:10361C0080329A60BB6903F40033002B03D07868C6
:10362C0000F038F916E0BB6903F48023002B04D0BA
:10363C007B6A43F400437B620CE0BB6903F4002318
:10364C00002B04D07B6A43F480337B6202E0786801
:10365C0000F03BF93B6A03F00803002B0CD07B69AC
:10366C0003F01003002B07D07B6A43F400737B62DA
:10367C007B681B681022DA603B6A03F00403002BA2
:10368C000BD07B6903F00803002B06D07B681B680A
:10369C000822DA60786800F021F93B6A03F0020333
:1036AC00002B09D07B681B68DB6803F00303002B3D
:1036BC0002D07868FDF79CFB3B6A03F04003002BBB
:1036CC000CD03B6903F01003002B07D07B6A43F44A
:1036DC0080637B627B681B6810221A613B6A03F073
:1036EC002003002B0BD03B6903F00803002B06D002
:1036FC007B681B6808221A61786800F001F93B6A44
:10370C0003F01003002B09D07B681B681B6903F0C6
:10371C000303002B02D0786800F0E9F83B6A03F44D
:10372C000033002B0BD0FB6903F01003002B06D0E9
:10373C007B681B6810225A60786800F0EAF83B6AD4
:10374C0003F48033002B0BD0FB6903F00803002B30
:10375C0006D07B681B6808225A60786800F0E2F893
:10376C003B6A03F40043002B7BD0FB6903F004039A
:10377C00002B72D03B6A03F48073002B08D0FB68DB
:10378C0003F00103002B03D07B6A43F001037B623F
:10379C003B6A03F40073002B08D0FB6803F00203B0
:1037AC00002B03D07B6A43F002037B623B6A03F479
:1037BC008063002B08D0FB6803F00403002B03D0BC
:1037CC007B6A43F004037B623B6A03F40063002BC7
:1037DC0043D0FB6803F07003002B3ED0FB6803F072
:1037EC007003602B2BD0602B2ED8502B22D0502B5B
:1037FC002AD8402B19D0402B26D8302B10D0302B68
:10380C0022D8102B02D0202B05D01DE07B6A43F070
:10381C0008037B6219E07B6A43F010037B6214E0BF
:10382C007B6A43F020037B620FE07B6A43F040032A
:10383C007B620AE07B6A43F080037B6205E07B6A73
:10384C0043F480737B6200E000BF7B681B689A695D
:10385C007B681B6822F070029A617B681B680422EB
:10386C005A607B6A002B08D07B685A6A7B6A1A43C1
:10387C007B685A62786800F05EF800BF2837BD4656
:10388C0080BD80B483B000AF786000BF0C37BD46FC
:10389C0080BC704780B483B000AF786000BF0C3739
:1038AC00BD4680BC704780B483B000AF786000BF69
:1038BC000C37BD4680BC704780B483B000AF7860D5
:1038CC0000BF0C37BD4680BC704780B483B000AFDE
:1038DC00786000BF0C37BD4680BC704780B483B0A5
:1038EC0000AF786000BF0C37BD4680BC704780B419
:1038FC0083B000AF786000BF0C37BD4680BC70470A
:10390C0080B483B000AF786000BF0C37BD4680BC7C
:10391C00704780B483B000AF786000BF0C37BD46F1
:10392C0080BC704780B483B000AF786000BF0C37A8
:10393C00BD4680BC704780B483B000AF786000BFD8
:10394C000C37BD4680BC704780B485B000AF786042
:10395C007B6803F00703FB600C4BDB68BB60BA6849
:10396C004FF6FF031340BB60FB681A02BB6813439E
:10397C0043F0BF6343F40033BB60044ABB68D360BD
:10398C0000BF1437BD4680BC704700BF00ED00E09F
:10399C0080B400AF044BDB681B0A03F00703184626
:1039AC00BD4680BC704700BF00ED00E080B483B022
:1039BC0000AF0346FB7197F90730002B0BDBFB794B
:1039CC0003F01F02064997F907305B09012000FA42
:1039DC0002F241F8232000BF0C37BD4680BC704773
:1039EC0000E100E080B483B000AF03463960FB71A6
:1039FC0097F90730002B0ADB3B68DAB20C4997F9D0
:103A0C0007301201D2B20B4483F800230AE03B6862
:103A1C00DAB20849FB7903F00F03043B1201D2B26E
:103A2C000B441A7600BF0C37BD4680BC704700BFF4
:103A3C0000E100E000ED00E080B489B000AFF86078
:103A4C00B9607A60FB6803F00703FB61FB69C3F1A3
:103A5C000703042B28BF0423BB61FB690433062B2B
:103A6C0002D9FB69033B00E000237B614FF0FF327E
:103A7C00BB6902FA03F3DA43BB681A407B699A40CC
:103A8C004FF0FF317B6901FA03F3D9437B680B409C
:103A9C00134318462437BD4680BC704780B582B0AE
:103AAC0000AF78607B68013BB3F1807F01D30123C9
:103ABC000FE00A4A7B68013B53600F214FF0FF3047
:103ACC00FFF790FF054B00229A60044B07221A6007
:103ADC00002318460837BD4680BD00BF10E000E04B
:103AEC0080B582B000AF78607868FFF72DFF00BF1B
:103AFC000837BD4680BD80B586B000AF0346B960BF
:103B0C007A60FB7300237B61FFF742FF78617A6870
:103B1C00B9687869FFF790FF024697F90F301146A4
:103B2C001846FFF75FFF00BF1837BD4680BD80B554
:103B3C0082B000AF0346FB7197F907301846FFF7C8
:103B4C0035FF00BF0837BD4680BD80B582B000AFE1
:103B5C0078607868FFF7A2FF034618460837BD4621
:103B6C0080BD000080B485B000AF78600023FB609E
:103B7C007B68002B01D1012343E07B681B681A464C
:103B8C00224B1344224AA2FB03231B099A007B6895
:103B9C001A647B681F4ADA637B68022283F821204F
:103BAC007B681B681B68FB60FB6823F47F5323F066
:103BBC003003FB607B685A687B689B681A437B68A0
:103BCC00DB681A437B681B691A437B685B691A4381
:103BDC007B689B691A437B68DB691343FA68134360
:103BEC00FB607B681B68FA681A607B6800229A632A
:103BFC007B68012283F821207B68002283F8202037
:103C0C00002318461437BD4680BC7047F8FFFDBF33
:103C1C00CDCCCCCC0000024080B586B000AFF860B3
:103C2C00B9607A603B600023FB75FB6893F8203029
:103C3C00012B01D102234BE0FB68012283F82020E9
:103C4C00FB6893F82130DBB2012B3AD1FB680222DE
:103C5C0083F82120FB6800229A63FB681B681A68B2
:103C6C00FB681B6822F001021A603B687A68B9682D
:103C7C00F86800F037F9FB68DB6A002B08D0FB68AA
:103C8C001B681A68FB681B6842F00E021A600FE092
:103C9C00FB681B681A68FB681B6822F004021A6038
:103CAC00FB681B681A68FB681B6842F00A021A6002
:103CBC00FB681B681A68FB681B6842F001021A60FB
:103CCC0005E0FB68002283F820200223FB75FB7DB6
:103CDC0018461837BD4680BD80B584B000AF7860FB
:103CEC007B68DB6B1B68FB607B681B681B68BB60BD
:103CFC007B681B6C04229A40FB681340002B4FD04E
:103D0C00BB6803F00403002B4AD07B681B681B685C
:103D1C0003F02003002B07D17B681B681A687B68B3
:103D2C001B6822F004021A607B681B68664A934287
:103D3C0029D07B681B68654A934222D07B681B683C
:103D4C00634A93421AD07B681B68624A934212D032
:103D5C007B681B68604A93420AD07B681B685F4A89
:103D6C00934202D14FF480030EE04FF080630BE0DE
:103D7C004FF4802308E04FF4804305E04FF4806358
:103D8C0002E0402300E00423554A53607B68DB6A61
:103D9C00002B00F094807B68DB6A786898478EE093
:103DAC007B681B6C02229A40FB681340002B56D098
:103DBC00BB6803F00203002B51D07B681B681B68A7
:103DCC0003F02003002B0BD17B681B681A687B68FF
:103DDC001B6822F00A021A607B68012283F82120FA
:103DEC007B681B68384A934229D07B681B68374A2A
:103DFC00934222D07B681B68354A93421AD07B6869
:103E0C001B68344A934212D07B681B68324A934237
:103E1C000AD07B681B68314A934202D14FF40013DD
:103E2C000EE04FF000730BE04FF4003308E04FF45A
:103E3C00005305E04FF4007302E0202300E002235E
:103E4C00274A53607B68002283F820207B689B6A9A
:103E5C00002B34D07B689B6A786898472FE07B688E
:103E6C001B6C08229A40FB681340002B28D0BB68BF
:103E7C0003F00803002B23D07B681B681A687B684F
:103E8C001B6822F00E021A607B681A6C7B68DB6B75
:103E9C00012101FA02F25A607B6801229A637B6865
:103EAC00012283F821207B68002283F820207B6884
:103EBC001B6B002B04D07B681B6B7868984700BF8A
:103ECC0000BF1037BD4680BD080002401C000240F8
:103EDC003000024044000240580002406C00024096
:103EEC000000024080B485B000AFF860B9607A6021
:103EFC003B60FB681A6CFB68DB6B012101FA02F278
:103F0C005A60FB681B683A685A60FB685B68102B48
:103F1C0008D1FB681B687A689A60FB681B68BA68F2
:103F2C00DA6007E0FB681B68BA689A60FB681B687C
:103F3C007A68DA6000BF1437BD4680BC7047000059
:103F4C0080B48BB000AF7860396000237B620023B3
:103F5C003B6269E101227B6A02FA03F3FB613B6875
:103F6C001B68FA691340BB61BA69FB699A4240F05D
:103F7C0058813B685B689A4A93425ED0984A934258
:103F8C0075D8984A934258D0964A93426FD8964A1D
:103F9C00934252D0944A934269D8944A93424CD05B
:103FAC00924A934263D8924A934246D0904A9342A3
:103FBC005DD8122B2AD8122B59D801A252F823F013
:103FCC0047400008214000083340000875400008B5
:103FDC007B4000087B4000087B4000087B400008C9
:103FEC007B4000087B4000087B4000087B400008B9
:103FFC007B4000087B4000087B4000087B400008A9
:10400C007B400008294000083D400008794A934253
:10401C0013D02CE03B68DB683B6229E03B68DB6833
:10402C0004333B6224E03B68DB6808333B621FE0EF
:10403C003B68DB680C333B621AE03B689B68002BE7
:10404C0002D104233B6213E03B689B68012B05D132
:10405C0008233B627B68FA691A6109E008233B621A
:10406C007B68FA695A6103E000233B6200E000BF01
:10407C00BB69FF2B01D87B6801E07B6804337B6153
:10408C00BB69FF2B02D87B6A9B0002E07B6A083B72
:10409C009B003B617B691A680F213B6901FA03F3B2
:1040AC00DB431A40396A3B6901FA03F31A437B6913
:1040BC001A603B685B6803F08053002B00F0B18002
:1040CC004D4B9B694C4A43F0010393614A4B9B69EE
:1040DC0003F00103BB60BB68484A7B6A9B08023350
:1040EC0052F82330FB607B6A03F003039B000F2222
:1040FC0002FA03F3DB43FA681340FB607B68404A27
:10410C00934213D07B683F4A93420DD07B683E4A62
:10411C00934207D07B683D4A934201D1032306E0CA
:10412C00042304E0022302E0012300E000237A6A66
:10413C0002F0030292009340FA681343FB602F498C
:10414C007B6A9B080233FA6841F823203B685B6862
:10415C0003F48013002B06D02D4B9A682C49BB69B5
:10416C0013438B6006E02A4B9A68BB69DB432849F2
:10417C0013408B603B685B6803F40013002B06D084
:10418C00234BDA682249BB691343CB6006E0204B12
:10419C00DA68BB69DB431E491340CB603B685B6844
:1041AC0003F40033002B06D0194B5A681849BB692D
:1041BC0013434B6006E0164B5A68BB69DB4314494A
:1041CC0013404B603B685B6803F48033002B21D0B9
:1041DC000F4B1A680E49BB6913430B6021E000BFFB
:1041EC0000003210000031100000221000002110DD
:1041FC0000001210000011100010024000000140DD
:10420C0000080140000C0140001001400014014066
:10421C00000401400B4B1A68BB69DB43094913408E
:10422C000B607B6A01337B623B681A687B6A22FAFB
:10423C0003F3002B7FF48EAE00BF00BF2C37BD46BE
:10424C0080BC70470004014080B485B000AF78603A
:10425C000B467B807B689A687B881340002B02D0CE
:10426C000123FB7301E00023FB73FB7B184614371F
:10427C00BD4680BC704780B483B000AF78600B46FD
:10428C007B8013467B707B78002B03D07A887B680D
:10429C001A6103E07B881A047B681A6100BF0C3733
:1042AC00BD4680BC704780B485B000AF78600B46CB
:1042BC007B807B68DB68FB607A88FB6813401A04A0
:1042CC00FB68D9437B880B401A437B681A6100BF9B
:1042DC001437BD4680BC704780B584B000AF7860A1
:1042EC007B68002B01D101232BE17B6893F83D30D7
:1042FC00DBB2002B06D17B68002283F83C20786867
:10430C00FCF77CFE7B68242283F83D207B681B68CD
:10431C001A687B681B6822F001021A607B681B68B4
:10432C001A687B681B6842F400421A607B681B6841
:10433C001A687B681B6822F400421A6001F032F89C
:10434C00F8607B685B68814A934207D8FB68804AB7
:10435C00934294BF01230023DBB206E0FB687D4A45
:10436C00934294BF01230023DBB2002B01D0012325
:10437C00E7E0FB68784AA2FB03239B0CBB607B68DD
:10438C001B685B6823F03F017B681B68BA680A43B3
:10439C005A607B681B681B6A23F03F017B685B6873
:1043AC006A4A934202D8BB68013309E0BB684FF4F8
:1043BC00967202FB03F3694AA2FB03239B090133A8
:1043CC007A6812680B4313627B681B68DB6923F401
:1043DC004F4222F0FF027B685B685C498B4219D824
:1043EC00FB68591E7B685B685B00B1FBF3F3591CDF
:1043FC0040F6FC730B40002B0AD0FB68591E7B68FF
:10440C005B685B00B1FBF3F30133C3F30B0351E0C7
:10441C0004234FE07B689B68002B11D1FB68581E6E
:10442C007B6859680B465B000B44B0FBF3F301331C
:10443C00C3F30B03002B0CBF01230023DBB212E0F0
:10444C00FB68581E7B6859680B469B000B4499000F
:10445C000B44B0FBF3F30133C3F30B03002B0CBF82
:10446C0001230023DBB2002B01D0012322E07B6867
:10447C009B68002B0ED1FB68581E7B6859680B4655
:10448C005B000B44B0FBF3F30133C3F30B0343F4B6
:10449C0000430FE0FB68581E7B6859680B469B0075
:1044AC000B4499000B44B0FBF3F30133C3F30B0340
:1044BC0043F44043796809681343CB617B681B68FC
:1044CC001B6823F0C0017B68DA697B681B6A1A439E
:1044DC007B681B680A431A607B681B689B6823F423
:1044EC00034323F0FF037A6811697A68D268114399
:1044FC007A6812680B4393607B681B68DB6823F057
:10450C00FF017B685A697B689B691A437B681B684F
:10451C000A43DA607B681B681A687B681B6842F088
:10452C0001021A607B6800221A647B68202283F8DF
:10453C003D207B6800221A637B68002283F83E20B2
:10454C00002318461037BD4680BD00BFA086010071
:10455C007F841E00FF083D0083DE1B43D34D621099
:10456C0080B588B002AFF8607A601A460B467B8142
:10457C0013463B81FDF7C2FF7861FB6893F83D3031
:10458C00DBB2202B40F0E0807B69009319230122E1
:10459C007049F86800F064F90346002B01D002233F
:1045AC00D3E0FB6893F83C30012B01D10223CCE023
:1045BC00FB68012283F83C20FB681B681B6803F036
:1045CC000103012B07D0FB681B681A68FB681B688A
:1045DC0042F001021A60FB681B681A68FB681B68D2
:1045EC0022F400621A60FB68212283F83D20FB68EC
:1045FC00102283F83E20FB6800221A64FB687A685C
:10460C005A62FB683A895A85FB685B8D9AB2FB68E3
:10461C001A85FB68504ADA6279897B693A6AF868CC
:10462C0000F09CF80346002B01D001238DE0002301
:10463C003B61FB681B685B693B61FB681B689B69A2
:10464C003B613B6966E07A69396AF86800F022FAE6
:10465C000346002B0DD0FB681B6C042B07D1FB68A9
:10466C001B681A68FB681B6842F400721A6001230D
:10467C006BE0FB685B6A1A78FB681B681A61FB6865
:10468C005B6A5A1CFB685A62FB685B8D9BB2013BF0
:10469C009AB2FB685A85FB681B8D013B9AB2FB688A
:1046AC001A85FB681B685B6903F00403042B1BD1A0
:1046BC00FB681B8D002B17D0FB685B6A1A78FB68B4
:1046CC001B681A61FB685B6A5A1CFB685A62FB68C0
:1046DC005B8D9BB2013B9AB2FB685A85FB681B8DC4
:1046EC00013B9AB2FB681A857A69396AF86800F05E
:1046FC0019FA0346002B0DD0FB681B6C042B07D159
:10470C00FB681B681A68FB681B6842F400721A602D
:10471C0001231AE0FB681B8D002B94D1FB681B68EE
:10472C001A68FB681B6842F400721A60FB6820224E
:10473C0083F83D20FB68002283F83E20FB680022B2
:10474C0083F83C20002300E0022318461837BD46AE
:10475C0080BD00BF020010000000FFFF80B588B0D4
:10476C0002AFF8607A603B600B467B81FB68DB6ACA
:10477C007B617B69082B06D07B69012B03D07B699D
:10478C0013F5803F08D1FB681B681A68FB681B682F
:10479C0042F480721A600BE0FB681B6B122B07D182
:1047AC00FB681B681A68FB681B6842F480721A600D
:1047BC003B6800937B6800224FF00111F86800F011
:1047CC004FF80346002B0DD0FB681B681B6803F4E5
:1047DC008073B3F5807F03D1FB684FF400721A64C9
:1047EC00032335E0FB681B69B3F5804F08D17B8947
:1047FC00DBB21A46FB681B6802F0FE021A611BE072
:10480C007B89DB11DBB203F00603DBB263F00F0331
:10481C00DAB2FB681B681A613B687A680E49F86863
:10482C0000F098F80346002B01D0012310E07B899F
:10483C00DAB2FB681B681A613B687A680749F8684A
:10484C0000F088F80346002B01D0012300E0002380
:10485C0018461837BD4680BD080001000200010053
:10486C0080B584B000AFF860B9603B601346FB7153
:10487C0048E03B68B3F1FF3F44D0FDF73FFE0246F2
:10488C00BB69D31A3A689A4202D33B68002B39D1E0
:10489C00BB681B0CDBB2012B0DD1FB681B685B6981
:1048AC00DA43BB6813409BB2002B0CBF01230023DF
:1048BC00DBB21A460CE0FB681B689B69DA43BB68E9
:1048CC0013409BB2002B0CBF01230023DBB21A4612
:1048DC00FB799A4216D1FB6800221A63FB682022EE
:1048EC0083F83D20FB68002283F83E20FB681B6C9C
:1048FC0043F02002FB681A64FB68002283F83C201A
:10490C00012323E0BB681B0CDBB2012B0DD1FB6830
:10491C001B685B69DA43BB6813409BB2002B0CBF6E
:10492C0001230023DBB21A460CE0FB681B689B6971
:10493C00DA43BB6813409BB2002B0CBF012300234E
:10494C00DBB21A46FB799A4293D0002318461037F3
:10495C00BD4680BD80B584B000AFF860B9607A60A8
:10496C003B6071E0FB681B685B6903F48063B3F523
:10497C00806F23D1FB681B681A68FB681B6842F4C4
:10498C0000721A60FB681B686FF480625A61FB68E6
:10499C0000221A63FB68202283F83D20FB6800226A
:1049AC0083F83E20FB681B6C43F00402FB681A641E
:1049BC00FB68002283F83C20012367E07B68B3F19D
:1049CC00FF3F41D0FDF79AFD02463B68D31A7A6847
:1049DC009A4202D37B68002B36D1BB681B0CDBB22E
:1049EC00012B0CD1FB681B685B69DA43BB68134075
:1049FC009BB2002B14BF01230023DBB20BE0FB683E
:104A0C001B689B69DA43BB6813409BB2002B14BF35
:104A1C0001230023DBB2002B16D0FB6800221A63A3
:104A2C00FB68202283F83D20FB68002283F83E209F
:104A3C00FB681B6C43F02002FB681A64FB680022C5
:104A4C0083F83C20012321E0BB681B0CDBB2012B5B
:104A5C000CD1FB681B685B69DA43BB6813409BB2E3
:104A6C00002B14BF01230023DBB20BE0FB681B6897
:104A7C009B69DA43BB6813409BB2002B14BF012324
:104A8C000023DBB2002B7FF46DAF002318461037E8
:104A9C00BD4680BD80B584B000AFF860B9607A6067
:104AAC0034E0F86800F086F80346002B01D00123AF
:104ABC0034E0BB68B3F1FF3F28D0FDF71FFD024681
:104ACC007B68D31ABA689A4202D3BB68002B1DD1FB
:104ADC00FB681B685B6903F08003802B16D0FB68B6
:104AEC0000221A63FB68202283F83D20FB68002219
:104AFC0083F83E20FB681B6C43F02002FB681A64B1
:104B0C00FB68002283F83C20012307E0FB681B684C
:104B1C005B6903F08003802BC3D100231846103748
:104B2C00BD4680BD80B584B000AFF860B9607A60D6
:104B3C0034E0F86800F03EF80346002B01D0012366
:104B4C0034E0BB68B3F1FF3F28D0FDF7D7FC024639
:104B5C007B68D31ABA689A4202D3BB68002B1DD16A
:104B6C00FB681B685B6903F00403042B16D0FB681D
:104B7C0000221A63FB68202283F83D20FB68002288
:104B8C0083F83E20FB681B6C43F02002FB681A6420
:104B9C00FB68002283F83C20012307E0FB681B68BC
:104BAC005B6903F00403042BC3D1002318461037B0
:104BBC00BD4680BD80B483B000AF78607B681B6855
:104BCC005B6903F48063B3F5806F1BD17B681B6852
:104BDC006FF480625A617B6800221A637B68202222
:104BEC0083F83D207B68002283F83E207B681B6C99
:104BFC0043F004027B681A647B68002283F83C2033
:104C0C00012300E0002318460C37BD4680BC7047DA
:104C1C0080B586B000AF78607B68002B01D1012392
:104C2C0072E27B681B6803F00103002B00F08780A5
:104C3C00924B5B6803F00C03042B0CD08F4B5B681E
:104C4C0003F00C03082B12D18C4B5B6803F48033FC
:104C5C00B3F5803F0BD1894B1B6803F40033002B59
:104C6C006CD07B685B68002B68D101234CE27B68BD
:104C7C005B68B3F5803F06D1804B1B687F4A43F4D9
:104C8C00803313602EE07B685B68002B0CD17B4B70
:104C9C001B687A4A23F480331360784B1B68774A7D
:104CAC0023F4802313601DE07B685B68B3F5A02FB1
:104CBC000CD1724B1B68714A43F4802313606F4B09
:104CCC001B686E4A43F4803313600BE06B4B1B681C
:104CDC006A4A23F480331360684B1B68674A23F4D9
:104CEC00802313607B685B68002B13D0FDF706FCF8
:104CFC00386108E0FDF702FC02463B69D31A642BCD
:104D0C0001D9032300E25D4B1B6803F40033002B35
:104D1C00F0D014E0FDF7F2FB386108E0FDF7EEFB94
:104D2C0002463B69D31A642B01D90323ECE1534BA4
:104D3C001B6803F40033002BF0D100E000BF7B684C
:104D4C001B6803F00203002B63D04C4B5B6803F031
:104D5C000C03002B0BD0494B5B6803F00C03082BA6
:104D6C001CD1464B5B6803F48033002B16D1434BAC
:104D7C001B6803F00203002B05D07B681B69012B19
:104D8C0001D00123C0E13D4B1B6823F0F8027B6886
:104D9C005B69DB00394913430B603AE07B681B69A4
:104DAC00002B20D0364B01221A60FDF7A7FB38618F
:104DBC0008E0FDF7A3FB02463B69D31A022B01D98D
:104DCC000323A1E12D4B1B6803F00203002BF0D051
:104DDC002A4B1B6823F0F8027B685B69DB002749D0
:104DEC0013430B6015E0264B00221A60FDF786FB7F
:104DFC00386108E0FDF782FB02463B69D31A022BAF
:104E0C0001D9032380E11D4B1B6803F00203002B27
:104E1C00F0D17B681B6803F00803002B3AD07B6849
:104E2C009B69002B19D0174B01221A60FDF766FB0A
:104E3C00386108E0FDF762FB02463B69D31A022B8E
:104E4C0001D9032360E10D4B5B6A03F00203002BD5
:104E5C00F0D0012000F0BAFA1CE00A4B00221A60D4
:104E6C00FDF74CFB38610FE0FDF748FB02463B6950
:104E7C00D31A022B08D9032346E100BF00100240CD
:104E8C000000424280044242924B5B6A03F00203F0
:104E9C00002BE9D17B681B6803F00403002B00F0A6
:104EAC00A6800023FB758B4BDB6903F08053002B32
:104EBC000DD1884BDB69874A43F08053D361854B16
:104ECC00DB6903F08053BB60BB680123FB75824B2D
:104EDC001B6803F48073002B18D17F4B1B687E4A30
:104EEC0043F480731360FDF709FB386108E0FDF7AC
:104EFC0005FB02463B69D31A642B01D9032303E15A
:104F0C00754B1B6803F48073002BF0D07B68DB6857
:104F1C00012B06D16F4B1B6A6E4A43F001031362DF
:104F2C002DE07B68DB68002B0CD16A4B1B6A694A4D
:104F3C0023F001031362674B1B6A664A23F00403D8
:104F4C0013621CE07B68DB68052B0CD1614B1B6A80
:104F5C00604A43F0040313625E4B1B6A5D4A43F0E4
:104F6C00010313620BE05B4B1B6A5A4A23F00103EB
:104F7C001362584B1B6A574A23F0040313627B6875
:104F8C00DB68002B15D0FDF7B9FA38610AE0FDF7A4
:104F9C00B5FA02463B69D31A41F28832934201D9E1
:104FAC000323B1E04B4B1B6A03F00203002BEED042
:104FBC0014E0FDF7A3FA38610AE0FDF79FFA024608
:104FCC003B69D31A41F28832934201D903239BE007
:104FDC00404B1B6A03F00203002BEED1FB7D012B2F
:104FEC0005D13C4BDB693B4A23F08053D3617B6892
:104FFC00DB69002B00F08780364B5B6803F00C03F9
:10500C00082B61D07B68DB69022B46D1334B002225
:10501C001A60FDF773FA386108E0FDF76FFA024683
:10502C003B69D31A022B01D903236DE0294B1B6872
:10503C0003F00073002BF0D17B681B6AB3F5803F43
:10504C0008D1244B5B6823F400327B689B682149B0
:10505C0013434B601F4B5B6823F474127B68196A13
:10506C007B685B6A0B431B4913434B601B4B012250
:10507C001A60FDF743FA386108E0FDF73FFA024683
:10508C003B69D31A022B01D903233DE0114B1B685A
:10509C0003F00073002BF0D035E0104B00221A60A7
:1050AC00FDF72CFA386108E0FDF728FA02463B6957
:1050BC00D31A022B01D9032326E0064B1B6803F0FD
:1050CC000073002BF0D11EE07B68DB69012B07D14C
:1050DC00012319E0001002400070004060004242C1
:1050EC000B4B5B68FB60FB6803F480327B681B6ACC
:1050FC009A4206D1FB6803F470127B685B6A9A4291
:10510C0001D0012300E0002318461837BD4680BDAE
:10511C000010024080B584B000AF786039607B68C5
:10512C00002B01D10123D0E06A4B1B6803F007036D
:10513C003A689A4210D9674B1B6823F007026549FD
:10514C003B6813430B60634B1B6803F007033A681F
:10515C009A4201D00123B8E07B681B6803F002037C
:10516C00002B20D07B681B6803F00403002B05D0B8
:10517C00594B5B68584A43F4E06353607B681B6887
:10518C0003F00803002B05D0534B5B68524A43F4E1
:10519C0060535360504B5B6823F0F0027B689B6854
:1051AC004D4913434B607B681B6803F00103002BD4
:1051BC0040D07B685B68012B07D1474B1B6803F41D
:1051CC000033002B15D101237FE07B685B68022B39
:1051DC0007D1414B1B6803F00073002B09D101234D
:1051EC0073E03D4B1B6803F00203002B01D101233C
:1051FC006BE0394B5B6823F003027B685B683649D4
:10520C0013434B60FDF77AF9F8600AE0FDF776F985
:10521C000246FB68D31A41F28832934201D9032328
:10522C0053E02D4B5B6803F00C027B685B689B00C2
:10523C009A42EBD1274B1B6803F007033A689A425A
:10524C0010D2244B1B6823F0070222493B681343FE
:10525C000B60204B1B6803F007033A689A4201D09D
:10526C00012332E07B681B6803F00403002B08D099
:10527C00194B5B6823F4E0627B68DB6816491343C7
:10528C004B607B681B6803F00803002B09D0124BA2
:10529C005B6823F460527B681B69DB000E49134387
:1052AC004B6000F021F802460B4B5B681B0903F0C6
:1052BC000F030A49CB5C22FA03F3094A1360094B2A
:1052CC001B681846FDF7D8F8002318461037BD4662
:1052DC0080BD00BF00200240001002403067000873
:1052EC00540000205800002080B487B000AF002389
:1052FC00FB600023BB6000237B6100237B600023E9
:10530C003B611E4B5B68FB60FB6803F00C03042BDA
:10531C0002D0082B03D027E0194B3B6127E0FB6838
:10532C009B0C03F00F03174AD35C7B60FB6803F400
:10533C008033002B10D0114B5B685B0C03F0010326
:10534C00114AD35CBB607B680D4A03FB02F2BB685D
:10535C00B2FBF3F37B6104E07B680C4A02FB03F3C2
:10536C007B617B693B6102E0054B3B6100BF3B69A4
:10537C0018461C37BD4680BC704700BF0010024069
:10538C0000127A00486700085867000800093D00C1
:10539C0080B400AF024B1B681846BD4680BC7047FA
:1053AC005400002080B500AFFFF7F2FF0246054B1A
:1053BC005B681B0A03F007030349CB5C22FA03F377
:1053CC00184680BD001002404067000880B485B0CC
:1053DC0000AF78600A4B1B680A4AA2FB03235B0AE6
:1053EC007A6802FB03F3FB6000BFFB685A1EFA608D
:1053FC00002BF9D100BF00BF1437BD4680BC7047ED
:10540C0054000020D34D621080B586B000AF786098
:10541C0000233B610023FB607B681B6803F00103E6
:10542C00002B7DD00023FB754F4BDB6903F08053C1
:10543C00002B0DD14C4BDB694B4A43F08053D361AD
:10544C00494BDB6903F08053BB60BB680123FB75E0
:10545C00464B1B6803F48073002B18D1434B1B681D
:10546C00424A43F480731360FDF748F8386108E052
:10547C00FDF744F802463B69D31A642B01D9032388
:10548C006DE03A4B1B6803F48073002BF0D0364B65
:10549C001B6A03F44073FB60FB68002B2ED07B6807
:1054AC005B6803F44073FA689A4227D02E4B1B6A50
:1054BC0023F44073FB602E4B01221A602C4B00220C
:1054CC001A60294AFB681362FB6803F00103002B86
:1054DC0014D0FDF713F838610AE0FDF70FF8024617
:1054EC003B69D31A41F28832934201D9032336E047
:1054FC001D4B1B6A03F00203002BEED01A4B1B6AE8
:10550C0023F440727B685B68174913430B62FB7D85
:10551C00012B05D1144BDB69134A23F08053D36163
:10552C007B681B6803F00203002B08D00E4B5B68F2
:10553C0023F440427B689B680B4913434B607B68A8
:10554C001B6803F01003002B08D0074B5B6823F497
:10555C0080027B68DB68044913434B6000231846C8
:10556C001837BD4680BD00BF0010024000700040DF
:10557C004004424280B586B000AF786039607B68E9
:10558C00002B01D1012393E07B6893F83D30DBB213
:10559C00002B06D17B68002283F83C207868FCF74E
:1055AC00B7FE7B68022283F83D207B681B689B68F2
:1055BC007A68126823F4804323F0070393607B68B6
:1055CC001A687B6804331946104600F059FA7B6858
:1055DC001B689B687B617B681B689B693B617B6874
:1055EC001B681B6AFB603B681B687A6913437B6111
:1055FC003B6923F4407323F003033B613B689A68D7
:10560C003B689B691B0213433A6913433B613B693B
:10561C0023F4406323F00C033B613B6923F4704398
:10562C0023F0F0033B613B68DA683B68DB691B02E3
:10563C0013433A6913433B613B681B691A013B688E
:10564C001B6A1B0313433A6913433B61FB6823F04A
:10565C002203FB603B685A683B685B691B01134380
:10566C00FA681343FB607B681B687A699A607B68F5
:10567C001B683A699A617B681B68FA681A627B68D6
:10568C00012283F846207B68012283F83E207B6848
:10569C00012283F83F207B68012283F842207B683B
:1056AC00012283F843207B68012283F83D200023EC
:1056BC0018461837BD4680BD80B584B000AF786001
:1056CC0039607B6893F83E30FB737B6893F83F300E
:1056DC00BB737B6893F842307B737B6893F84330E1
:1056EC003B733B68002B10D1FB7B012B02D17B7BE6
:1056FC00012B01D0012389E07B68022283F83E2034
:10570C007B68022283F8422031E03B68042B10D1E5
:10571C00BB7B012B02D13B7B012B01D0012375E01C
:10572C007B68022283F83F207B68022283F84320A7
:10573C001DE0FB7B012B08D1BB7B012B05D17B7BB7
:10574C00012B02D13B7B012B01D001235EE07B6856
:10575C00022283F83E207B68022283F83F207B687C
:10576C00022283F842207B68022283F843203B68A4
:10577C00002B03D03B68042B10D01FE07B681B6808
:10578C0001220021184600F0DDF97B681B68DA68FD
:10579C007B681B6842F00202DA602EE07B681B68B3
:1057AC0001220421184600F0CDF97B681B68DA68E9
:1057BC007B681B6842F00402DA601EE07B681B68A1
:1057CC0001220021184600F0BDF97B681B680122FC
:1057DC000421184600F0B6F97B681B68DA687B6810
:1057EC001B6842F00202DA607B681B68DA687B682F
:1057FC001B6842F00402DA6000BF7B681B681A6801
:10580C007B681B6842F001021A60002318461037AF
:10581C00BD4680BD80B582B000AF78607B681B68E8
:10582C001B6903F00203022B22D17B681B68DB6827
:10583C0003F00203022B1BD17B681B686FF0020282
:10584C001A617B6801221A777B681B689B6903F0DD
:10585C000303002B03D0786800F0F6F805E07868B5
:10586C0000F0E9F8786800F0F8F87B6800221A7705
:10587C007B681B681B6903F00403042B22D17B6833
:10588C001B68DB6803F00403042B1BD17B681B68CB
:10589C006FF004021A617B6802221A777B681B681E
:1058AC009B6903F44073002B03D0786800F0CCF8AC
:1058BC0005E0786800F0BFF8786800F0CEF87B68F7
:1058CC0000221A777B681B681B6903F00803082BFE
:1058DC0022D17B681B68DB6803F00803082B1BD103
:1058EC007B681B686FF008021A617B6804221A77C8
:1058FC007B681B68DB6903F00303002B03D078681B
:10590C0000F0A2F805E0786800F095F8786800F0EF
:10591C00A4F87B6800221A777B681B681B6903F06C
:10592C001003102B22D17B681B68DB6803F010037B
:10593C00102B1BD17B681B686FF010021A617B68FF
:10594C0008221A777B681B68DB6903F44073002B11
:10595C0003D0786800F078F805E0786800F06BF810
:10596C00786800F07AF87B6800221A777B681B68ED
:10597C001B6903F00103012B0ED17B681B68DB68EC
:10598C0003F00103012B07D17B681B686FF0010248
:10599C001A61786800F046F87B681B681B6903F095
:1059AC008003802B0ED17B681B68DB6803F08003BF
:1059BC00802B07D17B681B686FF080021A617868B6
:1059CC0000F04BF97B681B681B6903F04003402B0C
:1059DC000ED17B681B68DB6803F04003402B07D1BA
:1059EC007B681B686FF040021A61786800F03EF823
:1059FC007B681B681B6903F02003202B0ED17B688E
:105A0C001B68DB6803F02003202B07D17B681B6825
:105A1C006FF020021A61786800F016F900BF0837A1
:105A2C00BD4680BD80B483B000AF786000BF0C373A
:105A3C00BD4680BC704780B483B000AF786000BFB7
:105A4C000C37BD4680BC704780B483B000AF786023
:105A5C0000BF0C37BD4680BC704780B483B000AF2C
:105A6C00786000BF0C37BD4680BC704780B483B0F3
:105A7C0000AF786000BF0C37BD4680BC704700009B
:105A8C0080B485B000AF786039607B681B68FB60C0
:105A9C007B68294A93420BD07B68B3F1804F07D0C7
:105AAC007B68264A934203D07B68254A934208D1EF
:105ABC00FB6823F07003FB603B685B68FA68134378
:105ACC00FB607B681C4A93420BD07B68B3F1804F20
